:020000040800F2
:100000000000082461340008792600087D260008D5
:1000100081260008852600088926000800000000C7
:1000200000000000000000000000000041E40008A3
:100030008D26000800000000D1E4000835E5000826
:10004000B1340008B1340008B1340008B1340008FC
:10005000B1340008B1340008B1340008B1340008EC
:10006000B134000891260008B1340008B13400080A
:10007000B1340008B1340008B1340008B1340008CC
:10008000B1340008B1340008B1340008B1340008BC
:10009000B1340008B1340008B1340008B1340008AC
:1000A000B1340008B1340008B1340008B13400089C
:1000B00099260008B1340008B1340008B1340008B2
:1000C000B1340008B1340008B1340008B13400087C
:1000D000B1340008B1340008B1340008B13400086C
:1000E000B1340008B134000800000000B134000849
:1000F000B1340008B1340008B1340008B13400084C
:10010000B1340008A5260008B1340008B134000855
:10011000B1340008B1340008B1340008B13400082B
:10012000B1340008B1340008B1340008B13400081B
:10013000B1340008B1340008B1340008B13400080B
:10014000B1340008B13400080000000000000000D5
:10015000B1340008B1340008B1340008B1340008EB
:10016000B1340008B1340008B1340008B1340008DB
:10017000B1340008B1340008B134000800000000B8
:10018000B1340008B1340008B1340008B1340008BB
:10019000B1340008B1340008B1340008B1340008AB
:1001A000B1260008B1340008BD260008B1340008AB
:1001B000B1340008B1340008B1340008B13400088B
:1001C000B1340008B1340008B1340008B13400087B
:1001D000B1340008B1340008B1340008B13400086B
:1001E000B1340008B1340008B1340008B13400085B
:1001F000B1340008B1340008B1340008B13400084B
:10020000B1340008B1340008B1340008B13400083A
:10021000B1340008B1340008B1340008B13400082A
:10022000B1340008C9260008D5260008B1340008FA
:10023000B1340008B1340008B1340008B13400080A
:10024000B1340008B1340008B1340008B1340008FA
:10025000B1340008B1340008B1340008B1340008EA
:10026000B1340008B1340008B1340008B1340008DA
:10027000B1340008B1340008B1340008B1340008CA
:10028000B1340008B1340008B134000800000000A7
:08029000B1340008B13400088C
:1002A00010B5054C237833B9044B13B10448AFF3B0
:1002B00000800123237010BD800200240000000094
:1002C0005048040808B5034B1BB103490348AFF37A
:1002D000008008BD0000000084020024504804088B
:1002E00010F8012B11F8013B012A28BF9A42F7D0E0
:1002F000D01A7047034613F8012B002AFBD1181AB5
:100300000138704753B94AB9002908BF00281CBFFB
:100310004FF0FF314FF0FF3000F070B9ADF1080C35
:100320006DE904CE00F006F8DDF804E0DDE9022313
:1003300004B070472DE9F047089E0D4604460F466D
:10034000002B4AD18A42944665D9B2FA82F343B16E
:1003500002FA03FCC3F120029F4020FA02F2174385
:100360009C404FEA1C4E1FFA8CF5B7FBFEF1220CA5
:100370000EFB117742EA074201FB05F090420AD9D1
:100380001CEB020201F1FF3780F01C81904240F229
:10039000198102396244121AA4B2B2FBFEF00EFBBC
:1003A000102244EA024400FB05F5A5420AD91CEBE1
:1003B000040400F1FF3280F00781A54240F204817D
:1003C0006444023840EA0140641B00211EB1DC4055
:1003D0000023C6E90043BDE8F0878B4208D9002E10
:1003E00000F0ED800021C6E900050846BDE8F08771
:1003F000B3FA83F1002949D1AB4202D3824200F221
:10040000F880841A65EB030201201746002EE2D023
:10041000C6E90047DFE702B9FFDEB2FA82F3002B3C
:1004200040F090808A1A4FEA1C471FFA8CFE012187
:10043000B2FBF7F507FB1520220C42EA00420EFB47
:1004400005F0904208D91CEB020205F1FF3802D2F8
:10045000904200F2CB804546121AA4B2B2FBF7F0EC
:1004600007FB102244EA02440EFB00FEA64508D911
:100470001CEB040400F1FF3202D2A64500F2BB805F
:100480001046A4EB0E0440EA05409FE7C1F12007A7
:100490008B4022FA07FC4CEA030C05FA01F420FA1F
:1004A00007F3FD404FEA1C492343B5FBF9F81FFA57
:1004B0008CFE09FB18551C0C44EA054408FB0EF59C
:1004C000A54202FA01F200FA01F00BD91CEB040478
:1004D00008F1FF3A80F08880A54240F28580A8F1BB
:1004E00002086444641B9DB2B4FBF9F309FB134496
:1004F00045EA044403FB0EFEA64508D91CEB0404A0
:1005000003F1FF356CD2A6456AD9023B644443EA45
:100510000843A3FB0295A4EB0E04AC42C846AE46CA
:1005200056D353D056B1B0EB080264EB0E0404FA74
:1005300007F7CA40CC401743C6E9007418460021AB
:10054000BDE8F087C3F1200102FA03FC20FA01F2B2
:1005500025FA01F19D402A434FEA1C471FFA8CFE01
:10056000B1FBF7F007FB1015110C41EA054100FB48
:100570000EF58D4204FA03F408D91CEB010100F1D9
:10058000FF382FD28D422DD902386144491B92B2D7
:10059000B1FBF7F507FB151142EA014205FB0EF12D
:1005A000914208D91CEB020205F1FF3816D29142A4
:1005B00014D9023D6244521A45EA004138E73146F7
:1005C000304608E73946E6E61046FBE64845A9D23C
:1005D000B9EB020865EB0C0E013BA3E74546EAE7E1
:1005E0002B4694E74046D1E7D0467BE7023D624484
:1005F00032E708460AE76444023842E7704700BF22
:10060000002323480421012210B5224C8AB08382A2
:1006100000930393016182610377436380F838306C
:10062000C0E90043C0E90233C0E90933C0E90B3334
:10063000CDE90133CDE90433CDE90633CDE9083303
:1006400003F0F4FAD0B9002369461148009303F08F
:10065000FBFBD0B9104806220023104C03A98DF8EB
:100660002530CDE9030204220948CDE90534CDE95E
:10067000072302F0F5FF20B90AB010BD01F04CFDD0
:10068000E1E701F049FD0AB010BD01F045FDE1E7E9
:100690009C02002400200240020030040000FF47BA
:1006A00000231D480421012210B51C4C88B0838210
:1006B00001930460016182610377436380F83830FD
:1006C000C0E90233C0E90933C0E90B33CDE9023395
:1006D000CDE90433CDE9063303F0A8FAA0B91048F8
:1006E0000622002340F2FF7401A98DF81D30CDE9E8
:1006F000010204220848CDE90334CDE9052302F0C4
:10070000AFFF20B908B010BD01F006FDE7E701F02A
:1007100003FD08B010BD00BF0003002400600258B4
:1007200002003004204A0368934200B585B005D02A
:100730001E4A934212D005B05DF804FB1C4BD3F85F
:10074000D82042F02002C3F8D820D3F8D83003F0E4
:1007500020030193019B05B05DF804FB144B4FF09F
:100760008061D3F8E020084642F08072C3F8E020B0
:10077000D3F8E02002F080720292029AD3F8E020CF
:1007800042F00402C3F8E020D3F8E03003F00403A1
:100790000393039B02F05AFF4FF00061084605B037
:1007A0005DF804EB02F052BF0020024000600258E6
:1007B0000044025808B508480023084901228380F4
:1007C00001600262C0E9053303F004FC00B908BD12
:1007D000BDE8084001F0A0BC64030024004C0258AE
:1007E0000A4B02689A4200D07047A3F5006382B0BA
:1007F000D3F8E02042F40022C3F8E020D3F8E03040
:1008000003F400230193019B02B07047004C02588F
:1008100000B58BB024220021684643F027FF18481A
:10082000184B036003F04CFCB8B900226946144829
:1008300004929FED0F7B8DED007B9FED0F7B8DED87
:10084000027B03F053FC80B9102269460C4803F088
:100850004DFC28B90BB05DF804FB01F05DFCE4E74A
:1008600001F05AFC0BB05DF804FB01F055FCEBE71E
:100870000000000000000000000000000100000077
:1008800088030024007400401B4A0023016800B55F
:10089000914289B0CDE90233CDE90433069302D009
:1008A00009B05DF804FB154B02A91548D3F8E82000
:1008B00042F00052C3F8E820D3F8E82002F00052DA
:1008C0000092009AD3F8E02042F00102C3F8E02041
:1008D000D3F8E03003F001039FED057B0193019B0A
:1008E0008DED027B04F088FC09B05DF804FB00BFCD
:1008F0003000000003000000007400400044025873
:100900000000025808B511480023114AC365C0E928
:100910001133C0E91333C0E91533C0E90023C0E93E
:10092000023303F08FFC28B90121084803F062FD6F
:1009300040B908BD01F0F0FB0121044803F05AFD65
:100940000028F6D0BDE8084001F0E6BB9C03002477
:10095000001000520F4B02689A4200D070470E4BB5
:100960005A200022052110B5D3F8D44082B044F0BB
:100970001004C3F8D440D3F8D43003F0100301932B
:10098000019B03F0DBFA5A2002B0BDE8104003F0EF
:1009900013BB00BF001000520044025870B5002481
:1009A000B6B024220125214611A840260494CDE9A1
:1009B000024443F05BFE6C2221461AA8CDE90A44AA
:1009C000CDE90C44CDE90E4443F050FEC54805A9DD
:1009D000CDE90565CDE9074404F00EFC2246314619
:1009E000C04804F041FD142002F018FE2A463146AA
:1009F000BC4804F039FD0A2002F010FEBA484FF05E
:100A0000A0433E2202A9049503600423446083604E
:100A10000123C560CDE9022303F0C0FD002840F0AA
:100A200040810023012211A9AF481192CDE9123370
:100A3000CDE91433CDE91633CDE9183303F0DAFFED
:100A4000002840F04C811C2020230F220AA9CDE968
:100A50000A031823A448CDE90C2300220023CDE982
:100A60000E2303F087FF002840F03681C8230122BF
:100A700004219D4804F096F8002840F02A810421C2
:100A8000994803F063FF002840F0208142F2107182
:100A9000954804F06DF8002840F015810021924837
:100AA00003F018FD002840F00B81002305200221EF
:100AB0004FF480621A934FF4007431924FF48075B2
:100AC0002B932C932D933493CDE91B030420219079
:100AD0004620CDE91D120C222490C12029924FF40A
:100AE000167225900A202A924FF4805227907E4851
:100AF000CDE9221340F2AC61CDE91F334FF400532E
:100B0000269117212E934FF4006328911AA9CDE95D
:100B10003245CDE92F2303F011FE002840F0CD80AF
:100B20000021714803F0F6FD002840F0C380002347
:100B3000052402204FF480624FF480552D931E92BD
:100B40001AA931921722229028922C924FF4005227
:100B500034932E924FF40062CDE91A340424CDE987
:100B60001C302194EE20682425900A20CDE92334FE
:100B700040F63804CDE926404FF416740C20CDE938
:100B80001F332A944FF480734FF400442990564841
:100B90002B94CDE92F524FF40072CDE9322303F0AC
:100BA000CDFD002840F0838000214F4803F0B2FDC6
:100BB000002879D100244C4803F086FF0123214608
:100BC000052200948025484803F0A6FF782002F013
:100BD00025FD5A202146872300902322424803F016
:100BE0009BFF2146B023232200953F4803F094FF4A
:100BF0005021B2232322009121463B4803F08CFF71
:100C00004B202B46214600902322374803F084FFD7
:100C1000FF202146812300902322334803F07CFFEC
:100C20001A2021468223009023222F4803F074FFCC
:100C3000882021468323009023222B4803F06CFF59
:100C40008F202146842300902322274803F064FF4D
:100C500035202146852300902322234803F05CFFA2
:100C6000B02021468623232200901F4803F054FF22
:100C7000322002F0D3FC21461123052200941A48A9
:100C800003F04AFF782002F0C9FC292305222146FF
:100C90000094154803F040FF782002F0BFFC36B006
:100CA00070BD01F039FABCE601F036FA82E701F0D6
:100CB00033FA79E701F030FA39E701F02DFA2FE73E
:100CC00001F02AFAF1E601F027FAE7E601F024FA4A
:100CD000DCE601F021FAD2E601F01EFAC6E601F0E8
:100CE0001BFAB0E6000002580404002410B5B4B0AA
:100CF0000446C822002102A843F0B8FC2368B3F1DF
:100D0000A04F01D034B010BD4FF08062002302A884
:100D1000CDE9022307F0D4FA70B9094BD3F8E420E7
:100D200042F01002C3F8E420D3F8E43003F01003DB
:100D30000193019B34B010BD01F0EEF9EDE700BF67
:100D40000044025838B5154800230122042102242A
:100D5000134D0382837405608166C0E90233C0E9E4
:100D60000C23C0E90E33C0E91031C0E91231C0E9EB
:100D70001431C0E91633C0E918331023C0E9062442
:100D8000C0E90842C0E90A22436104F035F800B91D
:100D900038BDBDE8384001F0BFB900BF24040024CD
:100DA00000A0004038B51548002301220421022488
:100DB000134D0382837405608166C0E90233C0E984
:100DC0000C23C0E90E33C0E91031C0E91231C0E98B
:100DD0001431C0E91633C0E918331023C0E90624E2
:100DE000C0E90842C0E90A22436104F005F800B9ED
:100DF00038BDBDE8384001F08FB900BFC4040024FD
:100E000000A40040D0B5BEB000210446C8220CA802
:100E10000A91CDE90611CDE9081143F027FC2368BA
:100E2000514A934204D0514A934258D03EB0D0BD6B
:100E30004FF4004600274FF080530CA8CDE90C6713
:100E4000299307F03DFA002840F08780484A13684C
:100E50000133012B13600CD1464BD3F8EC2042F444
:100E60008072C3F8EC20D3F8EC3003F48073019364
:100E7000019B404B4FF4007002210924D3F8E0207D
:100E80000026032742F00202C3F8E020D3F8E02056
:100E900002F002020292029AD3F8E02042F001022C
:100EA000C3F8E020D3F8E0300A9403F00103CDE961
:100EB0000601039306A93048039BCDE9086704F0B7
:100EC0009BF94FF40062022306A92C480A94CDE94D
:100ED0000867CDE9062304F08FF93EB0D0BD4FF48A
:100EE000004600274FF080530CA8CDE90C672993EA
:100EF00007F0E6F9002833D11D4A13680133012BAE
:100F000013600CD11B4BD3F8EC2042F48072C3F871
:100F1000EC20D3F8EC3003F480730493049B154B5E
:100F200042F2200602270924D3F8E02006A912483D
:100F300042F00202C3F8E020D3F8E0300A9403F054
:100F400002030593059BCDE9066700260327CDE93B
:100F5000086704F051F93EB0D0BD01F0DDF875E747
:100F600001F0DAF8C8E700BF00A0004000A400408C
:100F700020040024004402580004025800000258D3
:100F80002DE9F0473C4C01254FF0080900230E469F
:100F90004FF6FF72214607462560A560C4F804900D
:100FA000E36009F0D3FB00285BD18046284602F0BD
:100FB00035FB4FF6FF7221463846C4E90258C4E9B2
:100FC000005909F0C3FB284602F028FBC4F80C8046
:100FD0004FF002084FF6FF7221463846C4F80080F1
:100FE000C4E9019909F0B2FB8246002839D12846AC
:100FF00002F014FB73684FF6FF7221463846C4F8BE
:101000000CA0C4F80890C4E9003909F09FFB40BB6C
:10101000284602F003FB21463846A560D6E9033294
:101020009FED137B134372691343B2691343F26953
:1010300013434FF6FF7284ED007BE36009F086FBFB
:1010400078B9284602F0EAFAB168384609F09EFB02
:10105000044630B94146384609F0B0FB2046BDE8A9
:10106000F0874FF0FF30BDE8F08700BFAFF300809E
:101070000400000008000000680500242348002345
:101080000722032110B5C0E9023388B0C36183622F
:10109000042303921E4C00910460012406916946CA
:1010A0004460CDE9012304220323CDE90423202257
:1010B0004023C0E904234FF400634FF4C07203627D
:1010C0004FF480538261436209F016FBB0B91149B5
:1010D00008200322002340F20364CB608C60C1E946
:1010E000000230204FF40072C1E904300748C1E922
:1010F0000632FFF745FF20B908B010BD01F00CF82B
:10110000E5E701F009F808B010BD00BF7C05002438
:1011100040410052B0050024304B1A6802B17047BC
:101120002F4A01212F48D0B5196088B0D2F8D430A9
:10113000012603270C2443F48053C2F8D430D2F89C
:10114000D43040F2FF62069403F4805301930223EB
:10115000019902A9CDE90223CDE9046704F04CF816
:101160004FF68372022302A91F480694CDE9022399
:10117000CDE9046704F040F84FF6E072022302A9BB
:101180001A480694CDE90223CDE9046704F034F847
:1011900048F23712022302A915480694CDE902232A
:1011A000CDE9046704F028F84CF20372022302A987
:1011B00010480694CDE90223CDE9046704F01CF839
:1011C0004FF63F02022302A90B480694CDE90467BB
:1011D000CDE9022304F010F808B0D0BD7805002452
:1011E000004402580020025800100258001C025807
:1011F00000180258000C02580014025808B50120CB
:101200000CF0D4FEFBE700BF08B538F0E7F9142076
:101210000CF0CCFEF9E700BF08B50A2035F0E6F87F
:101220000A200CF0C3FEF8E7704700BF704700BF0C
:10123000054B10B403604FF40073044C0C605DF870
:10124000044B1360704700BFDC0D0024DC05002454
:1012500010B51B4C96B0A6460DF1040CBEE80F006D
:10126000ACE80F009EE807008CE80700002101A809
:101270000CF06AFE04F11C0E124B0DF1200C1860EC
:10128000BEE80F00ACE80F009EE807008CE80700FE
:10129000002108A80CF058FE04F1380C0A4B0FACE2
:1012A0001860BCE80F000FC49CE8070084E8070042
:1012B00000210FA80CF048FE044B186016B010BDBA
:1012C00080480408D0050024D4050024D805002453
:1012D0002DE9F04FAE4B93B000244FF48061DFF85E
:1012E000C4A2012510940226DFF8BCB25046DFF8F4
:1012F000BC92DFF8BC82A74FCDE90C44CDE90E4487
:10130000D3F8E02042F48072C3F8E020D3F8E02064
:1013100002F480720192019AD3F8E02042F00202B6
:10132000C3F8E020D3F8E02002F002020292029A11
:10133000D3F8E02042F04002C3F8E020D3F8E020E8
:1013400002F040020392039AD3F8E02042F0080230
:10135000C3F8E020D3F8E02002F008020492049AD7
:10136000D3F8E02042F00402C3F8E020D3F8E020F4
:1013700002F004020592059AD3F8E02042F001023F
:10138000C3F8E020D3F8E02002F001020692069AAA
:10139000D3F8E02042F01002C3F8E020D3F8E020B8
:1013A00002F010020792079AD3F8E02042F0800280
:1013B000C3F8E020D3F8E02002F080020892089AF7
:1013C000D3F8E02042F02002C3F8E020D3F8E02078
:1013D00002F020020992099AD3F8E0200A43C3F8E8
:1013E000E020D3F8E0200A400A920A9AD3F8E020DD
:1013F00042F40072C3F8E0202246D3F8E03003F450
:1014000000730B930B9B04F02FF8224658464FF4C1
:10141000804104F029F8604B22464FF48061184661
:1014200004F022F8224648464FF4007104F01CF8FC
:101430002A464046402104F017F84FF480620CA978
:1014400050460C920F94CDE90D5403F0D5FE0CA933
:1014500038460E949FED487B8DED0C7B03F0CCFE5F
:101460000CA958460E949FED467B8DED0C7B03F046
:10147000C3FE4FF4804158460F940C910CA94FF0D5
:10148000000BCDE90D5403F0B7FE0CA943480E94B0
:101490009FED3D7B8DED0C7B03F0AEFE4FF4807332
:1014A0000CA940461094CDE90C36CDE90E4403F06A
:1014B000A3FE50464FF0880A0CA90E94CDE90CAB60
:1014C00003F09AFE344B4FF480620CA918460F9437
:1014D0000C92CDE90D5403F08FFE4FF400730CA96C
:1014E00048460C930F94CDE90D5403F085FE4FF45C
:1014F000807348460CA90C9308230F961093CDE9EE
:101500000D6403F079FE08224FF404130CA924485B
:101510000E95CDE90C2303F06FFE402340460CA945
:101520000C930D95CDE90E4403F066FE0C230CA937
:10153000384610934FF480530F940C93CDE90D640B
:1015400003F05AFE03230CA938460D96CDE90E434D
:101550000C2310934FF440430C9303F04DFE2246AE
:101560000721092002F0EAFC092002F025FD13B052
:10157000BDE8F08FAFF30080100000000000000015
:1015800040800000000000000C000000000000008F
:101590000044025800040258001402580010025877
:1015A000001C025800180258000802580024025873
:1015B0000000025810B51748002317490124174AA4
:1015C000036280E81E00C0E90433C0E9063304F07A
:1015D000E5F850B900210F4804F0A0FA68B90021DD
:1015E0000C4804F0C5FA80B910BD00F095FD00214B
:1015F000084804F093FA0028F1D000F08DFD002196
:10160000044804F0B5FA0028EED0BDE8104000F020
:1016100083BD00BF800E002400540040DB3FB000BB
:1016200010B51B4800231B4901241B4A036280E8B4
:101630001E00C0E90433C0E9063304F0AFF878B9FE
:101640004FF48051124804F069FA90B90021104813
:1016500004F08EFAA8B90220BDE8104004F0B4BA34
:1016600000F05AFD4FF48051094804F057FA002861
:10167000ECD000F051FD0021054804F079FA002873
:10168000E9D000F049FD0220BDE8104004F09CBA0A
:10169000D40E002400580040551D500010B51748C6
:1016A000002317490124174A036280E81E00C0E99D
:1016B0000433C0E9063304F071F850B900210F4833
:1016C00004F02CFA68B900210C4804F051FA80B9F2
:1016D00010BD00F021FD0021084804F01FFA002889
:1016E000F1D000F019FD0021044804F041FA00286F
:1016F000EED0BDE8104000F00FBD00BF280F002461
:10170000001C0058DB3FB000F0B5C1B0002104461A
:10171000C8220EA80C91CDE90811CDE90A1142F0BA
:10172000A5FF2368614A934207D0614A934237D0AC
:10173000604A93427ED041B0F0BD082200230EA83B
:10174000CDE90E2306F0BCFD002840F0A5805A4CE0
:101750000422C0261227D4F8E03008A9574843F0E5
:101760000203C4F8E030D4F8E0300C92012203F018
:1017700002030193019B0323CDE90867CDE90A2306
:1017800003F03AFDD4F8E83043F40013C4F8E8302D
:10179000D4F8E83003F400130293029B41B0F0BD8B
:1017A000082200230EA8CDE90E2306F089FD0028AB
:1017B00075D1414C102012210425D4F8E0300026C8
:1017C000032743F08003C4F8E030D4F8E03003F09E
:1017D00080030393039BD4F8E03043F00203C4F882
:1017E000E030D4F8E0300C9503F00203CDE90801B5
:1017F000049308A93248049BCDE90A6703F0FCFC76
:101800004FF40062122308A92C480C95CDE9082357
:10181000CDE90A6703F0F0FCD4F8E83043F4800324
:10182000C4F8E830D4F8E83003F480030593059B4E
:1018300041B0F0BD102200230EA8CDE90E2306F022
:101840003FFD78BB1C4C04224FF440561227D4F8BD
:10185000E03008A91B4843F00803C4F8E030D4F88E
:10186000E0300C92002203F008030693069B03234A
:10187000CDE90867CDE90A2303F0BEFCD4F8F430C3
:1018800043F08003C4F8F430D4F8F43003F080035C
:101890000793079B41B0F0BD00F03EFC57E700F016
:1018A0003BFC86E700F038FCCCE700BF005400406A
:1018B00000580040001C0058004402580004025820
:1018C000001C0258000C025808B50548054B03607F
:1018D00004F014FC00B908BDBDE8084000F01CBCD1
:1018E0007C0F0024003000523D4B02689A4200D029
:1018F00070473C4A0023D2F8D41070B541F0200163
:10190000394E0446802082B03062C6E90230C2F807
:10191000D410D2F8D420354902F020023361B361EB
:1019200001921122F36101983046C6E90D3302237A
:10193000C6E9001273614FF0007120234FF4A042FA
:10194000C6E909134FF42033C6E90B2305F036FC32
:10195000002839D100222448114605F0A9FC0028AE
:101960003BD1234D202200232663EA611320AA6283
:101970004FF42032AB602B621E493464C5E90B3250
:10198000C5E90433C5E90D3308238022AB614FF06C
:101990000073EA606B62C5E90010284605F00EFC92
:1019A000C0B900221248114605F082FC78B965637F
:1019B0007920002207212C6402F0C0FA792002B0BD
:1019C000BDE8704002F0F8BA00F0A6FBC2E700F0F4
:1019D000A3FBECE700F0A0FBE3E700F09DFBC0E712
:1019E0000030005200440258D40F0024000200527C
:1019F00040100024C001005208B5114800234FF6E2
:101A0000FF721049036342614FF4000201609FEDD1
:101A10000A7BC0E90133C0E90333002380ED087B72
:101A2000C0E90A2305F0B0F900B908BDBDE80840D7
:101A300000F072BBAFF30080000000000000000067
:101A4000B010002400240058D0B5BCB000210446DA
:101A5000C8220AA80891CDE90411CDE9061142F087
:101A600005FE2A4B22689A4201D03CB0D0BD4022EC
:101A700000230AA8CDE90A2306F022FC002841D160
:101A8000234B4FF4806002210324D3F8F420002676
:101A9000002742F40072C3F8F420D3F8F42002F4D3
:101AA00000720192019AD3F8E02042F00202C3F8DA
:101AB000E020D3F8E02002F002020292029AD3F86A
:101AC000E02042F00802C3F8E020D3F8E0300894A8
:101AD00003F00803CDE90401039304A90D48039B17
:101AE000CDE9066703F088FB4FF40062022304A9E6
:101AF00009480894CDE90667CDE9042303F07CFB8F
:101B00003CB0D0BD00F008FBBAE700BF002400588D
:101B10000044025800040258000C025810B58EB060
:101B20003422002101A842F0A1FD244800232449C9
:101B30004522838680F83630C0E90013C0E90432BC
:101B40000921E522C0E90233C0E9061240F2E5436B
:101B50002022C0E9082340F285534FF41E72C0E9E9
:101B60000A234FF42173036305F080F9F8B90022CA
:101B7000FF244FF416704FF4806301A9ADF83420B0
:101B80000C908DF83620CDE90524052409944FF0FA
:101B90005044CDE903200948CDE90123CDE90723CD
:101BA000CDE90A4305F038FA20B90EB010BD00F0B7
:101BB000B3FADCE700F0B0FA0EB010BDE810002474
:101BC000001000500F4B02689A4200D070470E4B35
:101BD00058200022052110B5D3F8E44082B044F02B
:101BE0000804C3F8E440D3F8E43003F00803019399
:101BF000019B02F0A3F9582002B0BDE8104002F0AA
:101C0000DBB900BF00100050004402588B88C88820
:101C10000133013070B4B1F900403F26B1F9021030
:101C20001B1B401A04EB81240F491BB200B2CD6D7F
:101C3000C3F5806140EA03400C4B05EB84050024AA
:101C40001C60DC61DA601C615C63DD6319645864EC
:101C50009E601A6842F400721A601A6842F001022B
:101C600070BC1A60704700BFE810002400100052DA
:101C7000014834F047BB00BFBC11042438B50E4DF9
:101C80004FF480330D4C00220D49284634F054FAAD
:101C9000204634F02FFA237C0A4920460A4A6FF383
:101CA0004103216062610949094AE56023741162B8
:101CB000BDE8384034F04EBAA0110424BC1104240D
:101CC000A0110024000458020D1C0008711C00081B
:101CD0009C0300240A4A137803F0FF006BB14FF015
:101CE000000C084B084882F800C01B8802880B8053
:101CF000064B4A801B788B737047044B18707047F3
:101D0000321204242E120424301204242C1204242F
:101D100038B5144D01224FF48041134C284603F08E
:101D2000A3FB0A2001F07AFC00224FF480412846F0
:101D300003F09AFB0A2001F071FC01224FF480416C
:101D4000284603F091FB0A2001F068FC204634F09D
:101D5000EDFA064B0122204663602270BDE8384050
:101D600034F0F4BA000802580C120424D51C000800
:101D7000082800D0704730B5102289B001256423AF
:101D80000DEB0201002402932B461448CDE900120A
:101D900013490D708221CDE90444CDE9064403F0D6
:101DA00053FD18B10F4B1C7009B030BD9DF81320C6
:101DB0009DF8121012029DF815300B4802F4706263
:101DC0001B020A4303F47063064902809DF8142045
:101DD0000648134303800D7009B030BD800E002407
:101DE000321204242C1204242E120424301204244F
:101DF00030B5A1B04C2200210CA842F037FC2022C3
:101E0000002104A842F032FC022005F095FA3C4B78
:101E100000213C4A0191D96A21F00101D962DB6AB3
:101E200003F001030193936943F440439361936981
:101E300003F440430193019B93699804FCD5324B12
:101E4000D3F8F41041F00201C3F8F4100021D3F8E4
:101E5000F43003F002030293029B03919169284B33
:101E600041F440419161926902F440420392D96A7F
:101E7000244A41F00101D962DB6A03F001030393B4
:101E8000039B93699904FCD50223082429204FF46D
:101E9000A021199301221B930425CDE915330023BA
:101EA0001795CDE91C431E93F02318931823CDE911
:101EB0000C010CA81A93CDE9112205F0FFFA034694
:101EC00008B172B6FEE73F220693402329460492EA
:101ED0000322099304A80B930592CDE907434FF41D
:101EE00080630A9305F0D4FE08B172B6FEE74FF4A2
:101EF00080224FF4400105F0D7FD21B030BD00BF76
:101F00000004005800480258004402580000000035
:101F100010B5B2B0A8220021B42408A842F0A6FB54
:101F20000422062302210292684604924FF4803272
:101F30000C93059112914FF4406115922A920C2254
:101F400003949FED0B7BCDE90D33E7238DED007BF3
:101F50009FED097BCDE909120B938DED067B06F011
:101F6000AFF908B172B6FEE732B010BDAFF3008032
:101F700000000921000000000300000080000000B4
:101F80005E4A536913F4003310B582B011D1BFF328
:101F90004F8FBFF36F8FC2F85032BFF34F8FBFF335
:101FA0006F8F536943F400335361BFF34F8FBFF317
:101FB0006F8F5248436913F4803326D1C0F88430C0
:101FC000BFF34F8FD0F8804043F6E07EC4F34E3C21
:101FD000C4F3C9044FEA4C1C0CEA0E01234641EA43
:101FE0008372013BC0F860225A1CF8D1ACF1200C7E
:101FF0001CF1200FF0D1BFF34F8F436943F48033BE
:102000004361BFF34F8FBFF36F8F3D4C01F0C4FAB4
:10201000FFF7EEFEFFF77CFFD4F8E030002043F03E
:102020000073C4F8E030D4F8E03003F0007301939B
:10203000019B03F02BFA0021084603F035FA4FF418
:10204000803301E0013B51D022681204FAD5FFF73A
:102050003FF900F063F8FFF7ADFAFFF75FFD00F01E
:1020600013FFFFF71BFBFEF7D3FBFEF74BFCFEF75E
:1020700069FEFEF797FE00F065F900F0C5FD00F07F
:10208000A7FB00F073FC00F0B7FE00F0FBFE00F0D1
:102090003FFFFEF78FFBFFF7C3FAFFF7ADFC00F041
:1020A0007DF900F019FB00F037FEFEF777FC00F039
:1020B00051F801F055F8FEF7E1FFFFF705FC00F0DD
:1020C00089F8FEF79DFAFEF7EBFA01F04BF814F0F1
:1020D000ABFCFFF7D3FDFFF71BFE0FF06BFD0021FC
:1020E000084808F057FF18B172B6FEE772B6FEE76F
:1020F000FFF7AEF80BF012FFFEE700BF00ED00E0C7
:1021000000440258901404240368B3F1804F00D0B7
:10211000704701F071BA00BF72B6FEE70C4B7A202F
:102120000022082110B5D3F8D44082B044F0010455
:10213000C3F8D440D3F8D43003F001030193019BDA
:1021400001F0FCFE7A2002B0BDE8104001F034BF7F
:102150000044025808B506480023064AC0E9002397
:1021600007F0B8FA00B908BDBDE80840FFF7D4BFD2
:10217000341204240018024810B5B4B00446C82232
:10218000002102A842F072FA104B22689A4201D054
:1021900034B010BD4FF40032002302A8CDE9022371
:1021A00006F08EF870B90A4BD3F8DC2042F04002FA
:1021B000C3F8DC20D3F8DC3003F040030193019B2B
:1021C00034B010BDFFF7A8FFEDE700BF00180248CC
:1021D0000044025813487F220023FF2110B5124CFF
:1021E00082604FF4C002C16083610261C3614361D8
:1021F000C0E9004307F0F4FA30B90022094811465B
:1022000007F056FB48B910BDFFF786FF00220548CE
:10221000114607F04DFB0028F5D0BDE81040FFF750
:102220007BBF00BF4812042400400058000000009B
:1022300010B5B2B00446C8220021684642F016FA32
:102240000F4B22689A4201D032B010BD9FED0A7B3D
:102250004FF4007368468DED007B2E9306F030F846
:1022600030B9084A136F43F40043136732B010BD0E
:10227000FFF752FFF5E700BF00004000000000003C
:1022800000400058004402582A4B026870B59A4238
:102290008AB04FF00004CDE90444CDE90644089427
:1022A00001D00AB070BD244B03260C2504A9D3F835
:1022B000D420224842F48032C3F8D420D3F8D4206A
:1022C00002F480320192019AD3F8E02042F0040235
:1022D000C3F8E020D3F8E02002F004020292029A50
:1022E000D3F8E02042F00802C3F8E0204FF4F8529F
:1022F000D3F8E03003F0080303930223CDE9076528
:10230000CDE90423039B02F077FF042304A90C48C2
:1023100004930223069405930796089502F06CFF38
:1023200022460521312001F009FE312001F044FE52
:102330000AB070BD007000520044025800080258F4
:10234000000C02581348002313494FF4800210B5C3
:1023500080E80E0007244FF080614FF08052C36286
:10236000C0E90343C0E90531C0E90723C0E90933E7
:10237000C0E90D33C0E90F33C0E91133C0E91333AD
:10238000C0E9153308F032FA00B910BDBDE81040BD
:10239000FFF7C2BEE81204240030014013480023B6
:1023A00013494FF4800210B580E80E0007244FF067
:1023B00080614FF08052C362C0E90343C0E9053138
:1023C000C0E90723C0E90933C0E90D33C0E90F3381
:1023D000C0E91133C0E91333C0E9153308F006FA38
:1023E00000B910BDBDE81040FFF796BE701304247D
:1023F00000380040D0B5C0B000210446C8220EA865
:102400000C91CDE90811CDE90A1142F02FF92368AA
:102410005D4A934204D05D4A934264D040B0D0BD3F
:102420004FF4805200230EA8CDE90E2305F048FF9B
:10243000002840F0A380564B4FF400700221052481
:10244000D3F8F0200026032742F48052C3F8F0208E
:10245000D3F8F02002F480520192019AD3F8E020E0
:1024600042F04002C3F8E020D3F8E02002F040023E
:102470000292029AD3F8E02042F00202C3F8E02070
:10248000D3F8E02002F002020392039AD3F8E0208E
:1024900042F00802C3F8E020D3F8E0300C9403F0D7
:1024A0000803CDE90801049308A93A48049BCDE943
:1024B0000A6702F0A1FE0822022308A936480C94FC
:1024C000CDE90823CDE90A6702F096FE80220223B7
:1024D00008A932480C94CDE90A67CDE9082302F037
:1024E0008BFE40B0D0BD4FF4805200230EA8CDE942
:1024F0000E2305F0E5FE002843D1254B4FF4805014
:1025000002210524D3F8E8200026032742F4804264
:10251000C3F8E820D3F8E82002F480420592059A37
:10252000D3F8E02042F00102C3F8E020D3F8E02025
:1025300002F001020692069AD3F8E02042F004026B
:10254000C3F8E020D3F8E0300C9403F00403CDE9A5
:102550000801079308A91248079BCDE90A6702F012
:102560004BFE0C22022308A90E480C94CDE90A6701
:10257000CDE9082302F040FE40B0D0BDFFF7CCFD0E
:1025800059E7FFF7C9FDB8E70030014000380040C7
:10259000004402580018025800040258000C025867
:1025A00000000258000802580B4B00220F216FF068
:1025B000010010B4D3F8F44083B044F00204C3F82F
:1025C000F440D3F8F43003F002030193019B03B00D
:1025D0005DF8044B01F0B2BC004402580F2801D949
:1025E0000120704730B501468BB0002204461C2004
:1025F00001F0A4FC1C2001F0DFFC1B4B1B4A6946C8
:1026000002A81460D3F8E82042F00102C3F8E820E1
:10261000D3F8E83003F001030193019B05F030FD8E
:10262000079BC3B905F09CFC114B0022114C4FF0E5
:102630008045A3FB001340F2E731204625609B0C48
:10264000A260013BC4E90312636008F023FA30B1D1
:1026500001200BB030BD05F083FC4000E4E72046CC
:1026600008F0CEFAF5E700BF00440258100000243D
:1026700083DE1B43F8130424FEE700BFFEE700BF20
:10268000FEE700BFFEE700BFFEE700BF704700BFE8
:10269000082002F0EDBE00BF014809F055B800BFA8
:1026A000F8130424014807F0EBBE00BF6C120424A9
:1026B000014804F04FBC00BFE8100024014801F0BD
:1026C00005BE00BF9C030024014804F0BBBA00BF54
:1026D0007C0F0024704700BF00B5002393B03A4838
:1026E0004FF6FF72394909930D93049301930361E7
:1026F00083610C930793C0E90013C0E90232CDE96E
:102700000A33CDE90E33CDE91033CDE90533CDE9F8
:10271000023308F0BFF900283BD14FF4805309A9D8
:102720002948099308F082FE002846D1264808F07F
:10273000E9FC00283ED1002304220DA922480D9275
:102740006022CDE9103302230E920F9308F03AFF76
:1027500068BB0022022304A91B48CDE90423CDE96C
:10276000062208F085FDF8B9042204A916489FED59
:10277000147B8DED047B08F07BFD90B9002301A94B
:1027800011480193039309F0BFFA28B913B05DF81B
:1027900004FBFFF7C1FCC0E7FFF7BEFC13B05DF818
:1027A00004FBFFF7B9FCE9E7FFF7B6FCDCE7FFF74E
:1027B000B3FCCEE7FFF7B0FCBDE7FFF7ADFCB5E734
:1027C0000200000001000000DC14042400040040AA
:1027D00030B55D4C002397B05C494FF0FF32204686
:1027E00005930E932361A361C4E90013C4E9023287
:1027F000CDE90633CDE90F33CDE91133CDE91333FC
:1028000008F012FB30BB002305A94F48059307933E
:1028100009F07AFA20BB00230EA90C224A48109333
:1028200012939FED437B8DED0E7B09F04DF9A0B91E
:1028300023680025464A0C959342CDE90855CDE919
:102840000A5510D0414A93423ED0424A934254D056
:1028500017B030BDFFF760FCD5E7FFF75DFCE7E799
:10286000FFF75AFCD7E73C4B01243C48D3F8E02063
:1028700042F48062C3F8E020D3F8E02002F48062E2
:102880000192019AD3F8E02042F40072C3F8E020EC
:102890000222D3F8E0300C9403F400730293022375
:1028A000029908A9CDE9082302F0A6FC4FF4806242
:1028B000022308A92A480892CDE90935CDE90B542D
:1028C00002F09AFC17B030BD234B022408A925481A
:1028D000D3F8E02042F00102C3F8E020D3F8E03062
:1028E0000C9403F001039FED147B0393039B8DED88
:1028F000087B02F081FC17B030BD174B042408A9F7
:102900001948D3F8E02042F01002C3F8E020D3F8D1
:10291000E0300C9403F010039FED097B0493049BBB
:102920008DED087B02F068FC17B030BDAFF300807E
:10293000600000000000000008000000020000002D
:10294000300000000200000028150424000C0040A4
:102950000000014000400140004402580028025895
:1029600000240258000002580010025800B500234D
:1029700085B011484FF6FF72104901938361C0E999
:102980000013C0E90232CDE9023308F083F850B9F0
:10299000002301A908480193039309F0B5F928B968
:1029A00005B05DF804FBFFF7B7FBF1E7FFF7B4FBF9
:1029B00005B05DF804FB00BF74150424001000404E
:1029C0001C4A84B00368934216D01B4A934204D039
:1029D0001A4A93421FD004B07047194BD3F8E8202D
:1029E00042F00802C3F8E820D3F8E83003F0080307
:1029F0000293029B04B07047114BD3F8F02042F0D1
:102A00000102C3F8F020D3F8F03003F00103019382
:102A1000019B04B070470A4BD3F8F02042F4803297
:102A2000C3F8F020D3F8F03003F480330393039B12
:102A300004B0704700000140000C0040004001401D
:102A4000004402580000000023490023026810B52A
:102A50008A428AB0CDE90433CDE90633089313D016
:102A60001E4B9A4201D00AB010BD1D4BD3F8E8208E
:102A700042F01002C3F8E820D3F8E83003F0100366
:102A80000393039B0AB010BD154B022404A91548FB
:102A9000D3F8E8202243C3F8E820D3F8E820224006
:102AA0000192019AD3F8E02042F00402C3F8E0203A
:102AB000D3F8E030089403F004039FED057B029304
:102AC000029B8DED047B02F097FB0AB010BD00BFA6
:102AD00080000000020000000004004000100040E0
:102AE00000440258000802583F4A036830B5934238
:102AF0008BB04FF00004CDE90444CDE906440894BE
:102B000007D03A4A934235D0394A93424BD00BB062
:102B100030BD384B01253848D3F8E02042F48062BC
:102B2000C3F8E020D3F8E02002F480620092009A1B
:102B3000D3F8E02042F40072C3F8E0200222D3F878
:102B4000E030089503F4007301930223019904A96E
:102B5000CDE9042302F050FB4FF48062022304A964
:102B600026480492CDE90534CDE9074502F044FB3F
:102B70000BB030BD1F4B022404A92148D3F8E0203C
:102B800042F00102C3F8E020D3F8E030089403F0EB
:102B900001039FED117B0293029B8DED047B02F0FC
:102BA0002BFB0BB030BD134B042404A91548D3F8FC
:102BB000E02042F01002C3F8E020D3F8E03008949F
:102BC00003F010039FED067B0393039B8DED047BC5
:102BD00002F012FB0BB030BD080000000200000044
:102BE000300000000200000000000140000C004026
:102BF00000400140004402580028025800240258B6
:102C0000000002580010025810B5002498B02C2281
:102C100021460CA800940494CDE90144CDE9054473
:102C2000CDE90744CDE9094441F020FD3848394B4E
:102C3000846103604FF6FF73C0E90144C0E90444B6
:102C4000C36008F0F1F8002843D1314808F036F8A5
:102C5000002845D10023002269462D48CDE90023F4
:102C60000023029309F050F8002849D100200021E8
:102C700000226023CDE9080104A925480A92CDE984
:102C80000432CDE9062208F01FFF002835D10023C9
:102C9000042204A91E48049308F050FE50BB0023F0
:102CA0004FF400520CA91A4816939FED177BCDE9FB
:102CB0000C33CDE90E33CDE91032CDE912338DED71
:102CC000147B09F07BF870B91148FFF70DFF18B0BD
:102CD00010BDFFF721FA0E4807F0F0FF0028B9D029
:102CE000FFF71AFAB6E7FFF717FA0948FFF7FCFEF5
:102CF00018B010BDFFF710FAD1E7FFF70DFAC6E7DD
:102D0000FFF70AFAB2E700BF00000002000000006F
:102D1000441404240000014010B5002498B02C2273
:102D200021460CA801940494CDE90244CDE9054460
:102D3000CDE90744CDE9094441F098FC2C4804232F
:102D40002C4A84608461C0E9002340F2E733C0E983
:102D50000444C36008F068F800282FD1002301A9BB
:102D600023480193039308F0CFFF002833D160205C
:102D7000002240F2E63304A904901D4807920A920B
:102D80009FED177BCDE905328DED087B08F09CFEA9
:102D9000F0B900230CA91648129316939FED127BED
:102DA000CDE90C33CDE90E338DED107B09F006F83B
:102DB00038B90F48FFF798FE18B010BDFFF7ACF90F
:102DC000CCE7FFF7A9F90A48FFF78EFE18B010BD4F
:102DD000FFF7A2F9DDE7FFF79FF9C8E7AFF300803F
:102DE00000000000000000000000000000200000C3
:102DF000901404240040014010B500231F484FF4F4
:102E0000E1320C211E4C8360C0E90042C0E9051389
:102E10001A461946C0E90333C0E90733C0E909334C
:102E200009F06CFC70B90021144809F0C9FC88B99C
:102E30000021124809F006FDA0B9104809F0A2FCD3
:102E4000B8B910BDFFF768F900210C4809F0B8FCCB
:102E50000028EDD0FFF760F90021084809F0F2FCE6
:102E60000028EAD0FFF758F9044809F08BFC002845
:102E7000E7D0BDE81040FFF74FB900BFE8160424C3
:102E8000004C0040704700BF10B51F4800231F4C86
:102E90004FF4E1310C228360C0E90041C0E9033303
:102EA000C0E90523C0E90733C0E9093309F0F2FBA3
:102EB00070B90021144809F083FC88B90021124838
:102EC00009F0C0FCA0B9104809F05CFCB8B910BD0D
:102ED000FFF722F900210C4809F072FC0028EDD020
:102EE000FFF71AF90021084809F0ACFC0028EAD0E5
:102EF000FFF712F9044809F045FC0028E7D0BDE8C7
:102F00001040FFF709B900BFC015042400100140AC
:102F100010B520484FF4E1321F4C00230C21836090
:102F2000C0E900424FF44072C0E90333C0E9051222
:102F3000C0E90733C0E9093309F0ACFB70B90021DF
:102F4000144809F03DFC88B90021124809F07AFCC8
:102F5000A0B9104809F016FCB8B910BDFFF7DCF8AD
:102F600000210C4809F02CFC0028EDD0FFF7D4F824
:102F70000021084809F066FC0028EAD0FFF7CCF8E9
:102F8000044809F0FFFB0028E7D0BDE81040FFF738
:102F9000C3B800BF5416042400440040D0B5C0B0EC
:102FA00000210446C8220EA80C91CDE90811CDE9F4
:102FB0000A1141F05BFB2368624A934208D0624ADF
:102FC000934251D0614A934200F0818040B0D0BD1D
:102FD000022200230EA8CDE90E2305F071F9002886
:102FE00040F0A6805A4B48F2010002210824D3F891
:102FF000E8200026022742F40022C3F8E820D3F894
:10300000E82002F400220192019AD3F8E02042F075
:103010000102C3F8E020D3F8E02002F0010202929E
:10302000029AD3F8E02042F00202C3F8E020D3F87D
:10303000E0300C9403F00203CDE90801039308A9E2
:103040004448039BCDE90A6702F0D6F84FF480723A
:10305000022308A940480C94CDE90A67CDE908236A
:1030600002F0CAF840B0D0BD012200230EA8CDE97D
:103070000E2305F025F900285DD1354B4FF4C066CD
:1030800002270724D3F8F02008A9324842F01002A2
:10309000C3F8F020D3F8F02002F010020492049A52
:1030A000D3F8E02042F00102C3F8E020D3F8E0308A
:1030B0000C9403F001030593059BCDE908670026F6
:1030C0000227CDE90A6702F097F840B0D0BD02228E
:1030D00000230EA8CDE90E2305F0F2F870BB1C4BBF
:1030E000782602270724D3F8E82008A91B4842F4D1
:1030F0000032C3F8E820D3F8E82002F40032069248
:10310000069AD3F8E02042F00802C3F8E020D3F892
:10311000E0300C9403F008030793079BCDE90867A0
:1031200000260227CDE90A6702F066F840B0D0BD5C
:10313000FEF7F2FF56E7FEF7EFFF9EE7FEF7ECFF24
:10314000CDE700BF004C00400010014000440040AB
:10315000004402580000025800040258000C0258B3
:10316000704700BF08B5034903480AF0B1FE034B9E
:10317000187008BD7C170424CC4904088017042467
:103180008446054808B513460A46614606F022FD06
:10319000003818BF012008BD6C120424844605487D
:1031A00008B513460A46614606F08EFD003818BF82
:1031B000012008BD6C12042408B5034807F044F947
:1031C000043818BF012008BD6C12042401460148D0
:1031D00006F0F4BF6C12042408B500F031F908BD04
:1031E00008B500F035F908BD00B5012383B08DF8AE
:1031F000073000F021F808B98DF807009DF80700A6
:1032000003B05DF804FB00BF08B5FFF7EDFF012830
:1032100001D0022008BD074807F0AEF80028F9D118
:103220004FF48041034806F0DDFF003818BF01204D
:1032300008BD00BF6C1204240821044808B502F040
:103240000DF9B0FA80F0400908BD00BF0010025827
:1032500070B5184C012584B025700AF065FE10B9D0
:10326000207804B070BDFFF7CFFFB8B12378012BF1
:10327000F6D0114D2E68002EF2D1104BEC460FCB3C
:103280008CE80F00314660460AF098FE286000285E
:10329000E6D1237843F001032370E1E72570FFF7BF
:1032A0008BFF18B9237803F0FE0323702378DBB279
:1032B0002370DBE70000002484170424D4480408AA
:1032C00010B50123054C2370FFF776FF18B923785A
:1032D00003F0FE032370207810BD00BF000000241F
:1032E000184B30B518788BB010F0010406D1154694
:1032F000032924D8DFE801F0060A121A0324204625
:103300000BB030BD0C4620460BB030BD01A8FFF716
:103310005DFF079B20462B600BB030BD01A8FFF777
:1033200055FF089B20462B800BB030BD01A8FFF74E
:103330004DFF089B20465B0A2B600BB030BD042478
:10334000DDE700BF000000242DE9F04184B00E4607
:103350001746984647F22F550AF0EEFD044602E064
:10336000FFF72AFF40B10AF0E7FD001BA842F7D99A
:10337000012004B0BDE8F081424639463046FFF7EF
:10338000FFFE0028F4D10E4B47F2305201A8196815
:103390000AF054FE019B102BEAD1029B012BE7D1CE
:1033A0000AF0CAFD47F22F55044603E0FFF704FF79
:1033B0000028DED00AF0C0FD031BAB42F6D9D7E7E8
:1033C000841704242DE9F04184B00E461746984630
:1033D00047F22F550AF0B0FD044602E0FFF7ECFE7D
:1033E00040B10AF0A9FD001BA842F7D9012004B0A2
:1033F000BDE8F081424639463046FFF7CFFE00284F
:10340000F4D10E4B47F2305201A819680AF016FEAB
:10341000019B102BEAD1029B022BE7D10AF08CFD15
:1034200047F22F55044603E0FFF7C6FE0028DED022
:103430000AF082FD031BAB42F6D9D7E784170424B8
:10344000024B0022022118680AF0CCBD8417042424
:10345000024B0022012118680AF0C4BD841704241D
:10346000DFF834D000F026F80C480D490D4A00234F
:1034700002E0D458C4500433C4188C42F9D30A4A29
:103480000A4C002301E013600432A242FBD341F056
:103490004BF9FEF775FD704700000824000000247A
:1034A0007002002408C50608800200240C1F0524B1
:1034B000FEE700002D4B2E49D3F8882042F470021D
:1034C00010B4C3F888201A6942F010021A610B6820
:1034D00003F00F03062B05D80B6823F00F0343F00E
:1034E00007030B60234B0024234A1968204841F04E
:1034F000010119601C6119680A401A6003681B0702
:1035000005D5036823F00F0343F007030360194B4D
:1035100000221A491A481B4C9A61DA611A629C62AD
:10352000D8624FF0B04019635A639963DA63196443
:103530005A64196821F4802119601A66D0F8E420D1
:10354000114942F48042114BC0F8E4200A6813404C
:10355000B3F1005F03D20E4B0122C3F808210D4BDB
:1035600043F2D2025DF8044B1A60704700ED00E0B0
:1035700000200052004402587FEDF6EA800201016B
:103580000000FF01000202020010005C0000FFFFCB
:10359000008000510040005210B50320124C00F092
:1035A000BBFC04F0D3FA114B11499A699B69C2F331
:1035B000032203F00F038A5CCB5C02F01F020D496B
:1035C00003F01F03D04020FA03F308600F202360AC
:1035D000FFF704F810B10124204610BD0446FEF7A1
:1035E000E3FF204610BD00BF08000024004402583D
:1035F000E049040804000024034A044B11681B78C6
:103600000B441360704700BF881704240C0000248B
:10361000014B1868704700BF8817042438B504466A
:10362000FFF7F6FF0546631C02D0044B1B781C44D1
:10363000FFF7EEFF431BA342FAD338BD0C00002472
:10364000014B1868000C70470010005C034A536877
:1036500023EA000001435160704700BF0004005896
:10366000F0B5002283B0019290F85020012A00F0BA
:103670003681034601201A6883F850009468660773
:1036800000F19A800C68C4F31305002D40F09D8072
:10369000C4F38464A040D6694FF01F0E4D683043D8
:1036A0004FEA951CD06105F01F000CF00C0502F1EB
:1036B000300C84400EFA00FE5CF8050020EA0E0093
:1036C00020434CF80500906810F0040F906859D121
:1036D000050757D40C6802F114064FF0070C8F68E9
:1036E000E50DC4F3045405F004050CFA04FC07FAD4
:1036F00004F4705920EA0C0020437051BD48006862
:1037000000F07040B0F1805FD06800F0E28010F00F
:10371000100F4D69D06840F00281C0F38200400074
:1037200085400E69042E00F0DD8002F16004086817
:1037300054F8267000F0F84007F0004C40EA0C0006
:10374000284344F826004D7E0E69A5F1010554F882
:103750002600B5FA85F520F000406D0940EAC570F5
:1037600044F82600087E0D69A0F10100146905F0F7
:103770001F05B0FA80F024F4F0444009C002A840CC
:10378000204310619068C40714D4CE680C6806F01A
:1037900018079948D2F8C050F840C4F313072040E6
:1037A00025EA07052843C2F8C0009448864243D062
:1037B000002C13DB002003E05A6D42F020025A6512
:1037C000002283F8502003B0F0BD94FAA4F515B19F
:1037D000B5FA85F5A840C4F384645CE788498A4259
:1037E00000F0C18001F580718A4200F0BC80854DF7
:1037F0008548A968806801F0E076C04300F00100C8
:10380000002800F0BF808148844200F00781804892
:10381000844200F026817F488442CBD14902C9D43A
:1038200079498A42C6D1AA68002022F0E072324368
:1038300042F48002AA60C3E7002F75D094FAA4F086
:10384000002800F0B380B0FA80F0013000F01F00D3
:10385000092840F2AB8094FAA4F5002D00F0158100
:10386000B5FA85F50135AD0605F0F84594FAA4F0F2
:10387000002800F00881B0FA80F00126013000F045
:103880001F0006FA00F0054394FAA4F4002C00F09F
:10389000F880B4FA84F403206FF01D06013404F0BC
:1038A0001F0410FB0460000540F00070284302F183
:1038B00014060727C50DC0F3045005F00405874022
:1038C000745924EA07048F6887403C4374510C689C
:1038D0006EE7C0F382004D694000854021E7022079
:1038E00003B0F0BD106E0C6800F0F840A506B0EB18
:1038F000846F2ED0506E00F0F840854224D0906E38
:1039000000F0F840854229D0D06E00F0F8408542A2
:103910007FF438AFD06E20F00040D06632E7400828
:1039200000F008008540FCE6A00E013000F01F0406
:10393000092C2DD88506012005F0F845A040054347
:1039400004EB44000005B1E7506E20F000405066E3
:10395000D5E7106E20F000401066CBE7906E20F0A7
:1039600000409066D0E726482B4D00F58070A9688E
:1039700050F8F86C8068304301F0E076C04300F006
:1039800001003DE75A6D012042F020025A6517E719
:103990008506012604EB440005F0F84506FA04F418
:1039A0001E382543000540F000707FE794FAA4F527
:1039B000002D72D0B5FA85F50135AD0605F0F84554
:1039C00094FAA4F0002866D0B0FA80F00126013005
:1039D00000F01F0006FA00F0054394FAA4F4002C4E
:1039E00056D0B4FA84F0013000F01F0000EB400024
:1039F00000055BE70010005CFFFF0F000000FF47C1
:103A0000002002400063025800600258000084CB8E
:103A1000000052C70000B8CF0023024008023FF563
:103A2000C9AE1F498A427FF4C5AE1E4A1E481268BD
:103A3000A968920921F0E071A0FB020231439209CA
:103A400041F400010132A96052000192019A002A5A
:103A50003FF4B0AE019A013A0192019A002AF9D1DD
:103A6000A8E611F080707FF4A5AE0D498A427FF47C
:103A7000A1AEAA6822F0E072324342F08072AA60DE
:103A80009EE60A4812E70220FDE64FF08065EDE66B
:103A90004FF440100AE702209EE74FF080658FE761
:103AA0000060025804000024632D3E05000050FE13
:103AB00038B5574A04460368934226D002F580720F
:103AC000934222D0534B9B6813F4403F22D004F022
:103AD00007FA63680546B3F5003F00F08880B3F548
:103AE000403F6CD0B3F5803F00F08180FFF7A8FD28
:103AF00041F2030398424BD8474B9D422AD9226892
:103B0000936843F48073936038BD444B9B6813F40F
:103B1000403FDCD14FF40020002105F013FC636826
:103B20000546B3F5101F6CD008D8B3F5E01F50D090
:103B300016D9B3F5001FD9D14509D7E7B3F5201F32
:103B400045D0B3F5301FD1D1FFF77AFD41F2030321
:103B5000984240D82268936823F48073936038BDFC
:103B6000B3F5801F06D00AD9B3F5A01F02D0B3F574
:103B7000C01FBBD19B0C5B00B5FBF3F5B6E7B3F5FB
:103B8000002FF7D023F40022B2F5802FF2D0ADE75A
:103B9000234B9D4205D82268936823F440739360B9
:103BA00038BD204B9D421AD91F4B22689D42936815
:103BB00029D823F4407343F40073936038BD85081B
:103BC000FFF73EFD41F203039842E1D894E7C509AF
:103BD0008CE705098AE7124BB3EB152FDBD222687D
:103BE000936823F4407343F48073936038BD1B0CD7
:103BF000B5FBF3F5FFF724FD41F203039842C7D864
:103C00007AE7850972E743F44073936038BD00BFDB
:103C10000020024000630258002D310100230240C1
:103C200021BCBE0041787D0181F0FA0270B500230D
:103C300082B00193002800F0D180456D0446002D2C
:103C400000F0BB80226893689D0003D59168724B99
:103C50000B4093609368D80016D4704B70491B6872
:103C600090689B09A1FB03136E499B090140013336
:103C700041F0805191600193019B2BB1019B013B6D
:103C80000193019B002BF9D19368D90024D4636D73
:103C9000012543F010036365A36D2B43A36593686F
:103CA00013F0040F636D1DD1DB061BD4636D23F489
:103CB000817343F0020363659368DE0728D45A4B8F
:103CC0009A4217D003F580739A4213D0574B9B68E2
:103CD000D9071DD4564A15E09368002513F0040F48
:103CE000636DE1D0636D012543F0100328466365E1
:103CF00002B070BD4C4A4F4B92689B681343D80783
:103D000006D44D4A9368616823F47C130B43936097
:103D1000FFF796FC41F20303A1689842237F52D833
:103D200094F815C01A04206B42EA4C3202430A434D
:103D3000012B03D1236A013B42EA4342636A23B168
:103D400003F47873A16A0B431A4323683B49D8688C
:103D500001401143D9609A6812F0040F9A681CD18F
:103D600012071AD4D868364A217D024042EA8132CD
:103D7000E16A0A43DA6094F83820012A3AD01A69D5
:103D800022F001021A611A692046616B22F070422A
:103D90000A431A61FFF78CFE2368E268012A21D0EA
:103DA0001A6B22F00F021A63636D284623F0030397
:103DB00043F00103636502B070BDFCF7B3FCA56579
:103DC00084F850503EE71029AAD1617D1A0442EAD6
:103DD0004132216B0A4342F01C02A9E70125284623
:103DE00002B070BD196BA26921F00F01013A0A43BC
:103DF0001A63D9E7D4E90F12666C013918693243A6
:103E000042EA0142A16C0A430E4901400A4342F0D2
:103E100001021A61B7E700BFC0FFFF5F0400002482
:103E2000632D3E05C0FFFF6F002002400060025876
:103E300000630258002102400023024003C0F0FF4B
:103E4000FCBFFFFF1EF800FCF0B490F850209AB0C1
:103E50000E68012A4DD003462B4C002201201D681C
:103E60001692A54283F85000179208D0596D83F836
:103E7000502041F0200159651AB0F0BC7047234C26
:103E8000A26852070BD5AA685A6D012042F02002A1
:103E90005A65002283F850201AB0F0BC7047A86819
:103EA00010F00400F0D1C6B1DFF868C04F68DCF84C
:103EB000082022F440423A43CCF80820AD68A268BA
:103EC0002A43D40713D48A68DCF8084010493243E7
:103ED00021400A43CCF80820DBE70E498A6822F427
:103EE00040428A60A868A2680243D00705D5002036
:103EF000CFE702201AB0F0BC70478C683046044A05
:103F000022408A60C5E700BF002002400021024035
:103F1000E0F0FFFF0023024006494FF6FF0C0002CD
:103F2000054BCA6800F4E06002EA0C021043034348
:103F3000CB60704700ED00E00000FA051B4BDB682A
:103F4000C3F3022300B5C3F1070E03F1040CBEF165
:103F5000040F28BF4FF0040EBCF1060F1AD9033B23
:103F60004FF0FF3C0CFA03FC22EA0C024FF0FF3C3E
:103F700000280CFA0EFC21EA0C0101FA03F141EAD7
:103F800002010ADB09010A4BC9B2034483F800139A
:103F90005DF804FB00221346E8E700F00F0009017A
:103FA000044BC9B2034419765DF804FB00ED00E050
:103FB00000E100E0FCEC00E0002807DB012300F05A
:103FC0001F01034A40098B4042F82030704700BF70
:103FD00000E100E0002836D010B5437F044603F02E
:103FE000FF0263B3022223796277F3B92368174A89
:103FF0005A619A6822F018029A6062798AB122693D
:104000001A619A68D4E9050122F060020243002097
:104010009A609A6822F080020A4301219A606177CF
:1040200010BD4FF0FF321A61EBE7D4E902122046CF
:1040300000F00EF808B92368DFE7012010BD027711
:10404000FCF7CEFBCEE70120704700BFB71DC104CF
:10405000CB071AD51E2310B401E0013B17D321FA78
:1040600003FC1CF0010FF8D0182A11D8DFE802F089
:104070001610101010101010241010101010101026
:1040800021101010101010101400012070472AB1D8
:1040900001205DF8044B7047062BF9D80468002016
:1040A0006161A36823F018031343A3605DF8044B18
:1040B0007047072BF2D9EBE70F2BEFD9E8E700BFEA
:1040C00088B110B50379044603F0FF023BB1002329
:1040D00002210122217118462361227110BD427113
:1040E000FCF7D2FBF3E70120704700BF2DE9F04158
:1040F00043790E460968012B00F0978001230429BB
:104100000546144643714FF00203037144D002F098
:10411000100200683369012B08D11F23846B934080
:1041200024EA030473699340234383630723C46B26
:10413000934024EA0304D6E90273012B28D0022B12
:1041400028D0B7FA87F35B093B430B437168934070
:10415000914023434FF48044C3639440036823EAAF
:10416000040340F6FE7403609440036823EA0403EA
:1041700001240B43C021036001FA02F2036800210D
:1041800023EA0203036008462C716971BDE8F081DF
:104190000023D9E70123D7E7FFF73AFA2B68074650
:1041A0005B6B1CBBDFF8988013EA080F0DD0FFF79C
:1041B0002FFAC31B012B2B6803D95A6B12EA080F85
:1041C00036D15B6B13EA080FF1D10120FFF726FA15
:1041D0002868B369036411E0FFF71AFAC31B012BC7
:1041E0002B6802D95A6B002A22DB5B6B002BF3DBB6
:1041F0000120FFF713FA2868B369436404F0100242
:1042000040F2FF31836C914023EA0103F169914050
:104210000B43FF2183649140C36C23EA0103316A9D
:1042200091400B433168C36474E70220BDE8F0811C
:104230002B69032243F0080310462B612A71A5E77E
:1042400000800020002835D038B590F86130044651
:1042500003F0FF024BB323680220626884F8610018
:10426000E1691D6814481143A2682840E5680143CC
:10427000A06919600243596B104808401049024375
:104280005A631A6C1140D4E9040229435205196497
:10429000596B42EA0052002021F440110A435A634C
:1042A0000123606684F8613038BD80F86020FCF737
:1042B00051FBD0E701207047BFFFF8FFF8FEFFFF7A
:1042C0000000FFFF704700BF704700BF036870B574
:1042D0005D6804461E68EA0701D5F10556D4AA06B2
:1042E00001D5B3043BD4280701D5310521D46A0791
:1042F00001D5730572D4A80701D5B10504D4EA0627
:1043000001D5F30457D470BD23681A6822F40072F3
:104310001A6002229A600122636E6366002384F8A9
:10432000612084F86030236A002BE8D0204698474B
:10433000E5E723681A6822F400621A6008229A608E
:104340000422636E1343636684F861200022636A6B
:1043500084F86020002BCAD020469847C7E723681E
:104360001A6822F400521A6020229A600422636EB6
:1043700043F00203636684F861200022636A84F8D4
:104380006020002BAFD020469847ACE71A6822F493
:1043900080721A60426E42F00102426601229A6007
:1043A000042380F86130002380F86030436A002BDA
:1043B00095D0984793E723681020012100251A68BB
:1043C00022F480521A6098602046636E84F8605030
:1043D000636684F86110FFF777FF70BD236820469D
:1043E0001A6822F480621A6004229A60FFF76AFF5A
:1043F00081E700BF90F86020012A65D00346C1EB39
:10440000C100022203EB800070B4012483F8612014
:1044100083F86040826BC46A056B1205A4F1090C35
:1044200042EA0542C56BBCF1010F42EA040242EACE
:10443000455222D9456B42EA056281B91868234981
:10444000456A9C6A2940114341628461002201212E
:10445000104683F8611083F8602070BC70470B2C05
:104460001C6829D1E5691A492940056C806A41EA2E
:1044700085411143E1612061E8E7446B04F07F442A
:10448000144361B91968114A4E6A586B32409D6AEB
:1044900020F07F4022434A628D618862D6E7196826
:1044A0000A4ACD692A40856A2243446B24F07F443E
:1044B000CA610D610C62C9E7E5690449806A294057
:1044C0001143E1612061C1E702207047F0FFCC0099
:1044D000F0FFC000037C8446012B5CD002680023FF
:1044E000C2F8C430C2F8C8308161C80706D5D2F816
:1044F000C4004FF6FF730343C2F8C4308B0705D5E1
:10450000D2F8C43043F4F813C2F8C430480705D5D4
:10451000D2F8C83043F00103C2F8C8300B0705D504
:10452000D2F8C83043F00203C2F8C830C80605D537
:10453000D2F8C83043F00C03C2F8C8308B0605D55A
:10454000D2F8C83043F01003C2F8C830480605D589
:10455000D2F8C83043F02003C2F8C8300B0605D5A6
:10456000D2F8C83043F04003C2F8C830C80505D5BA
:10457000D2F8C83043F08003C2F8C8308B0505D5A7
:10458000D2F8C83043F4F853C2F8C83000231846B4
:104590008CF8103070470220704700BF002800F0F0
:1045A000B28070B5437C82B004460D46002B00F00B
:1045B000A78023680321002261740092D3F830247D
:1045C00042F08072C3F83024D3F8303403F08073A3
:1045D0000093009BFFF71CF8064606E0FFF718F86B
:1045E000831BB3F57A7F00F288802368D3F80C240C
:1045F000D104F3D5D3F83014444A28680A40C3F8EC
:1046000030246A68D3F83014D20242EA8002A868E3
:1046100042EA004201200A430021C3F830240191FC
:10462000D3F830240243C3F83024D3F830340340A5
:104630000193019BFEF7F2FFFEF7EAFF064605E055
:10464000FEF7E6FF801BB0F57A7F56D82368D3F8D3
:104650000C24D205F4D5D3F8A020616842F00602FC
:10466000A068C3F8A020D3F8942022F00302C3F876
:104670009420D3F894200A43E16842F00102C3F881
:104680009420D3F8A42022F00302C3F8A420D3F886
:10469000A4200A43C3F8A4209A6822F0FF029A607B
:1046A0006A689968012A41EA0001286838BF012236
:1046B0009960A968164D01F0030105FB02F28A40DA
:1046C0004FF47A5101FB00F0D3F81814B2FBF0F26A
:1046D00021F03F01C3F818140021D3F81804024355
:1046E0000846C3F818240122C3F8C410C3F8C81040
:1046F0006161A161627402B070BD032002B070BD3F
:10470000FCF7F4FA55E70120704700BF0386FCFF71
:1047100000093D00027C0346012A0DD002684FF0DB
:10472000000C106B20F003001063106B0143604617
:10473000116383F810C0704702207047037C012B7F
:1047400000F0F88003680122844630B402745A6B8A
:10475000486822F00102CC684D6903285A63D3F8F7
:10476000002422F00102C3F800249A6B22F0030215
:104770009A639A6B42EA04029A636F4ADC6B02EA1C
:1047800004020C69DA63DA6B42EA04026B4CDA6306
:104790001A6C02EA04021A641A6C42EA05021A64EC
:1047A0005A6C02EA04028C695A645A6C42EA0402A6
:1047B0000C685A64DA6822F00302DA60DA6842EAC6
:1047C0000402DA605A6922F007025A615C69D1E991
:1047D000085242EA0502CD6942EA050242EA0402B1
:1047E0005A611A6922F00F021A611A6942EA00023C
:1047F0001A61D3F8002422F00E02C3F80024D3F883
:10480000002442EA4002C3F8002407D11A698868EC
:1048100022F480721A611A6902431A619A6C48483C
:104820008C6A02409A649A6C2243CC6A9A64DA6C6D
:104830000240DA64D86C434A20434C6BD864186D4C
:104840000240086B1A651A6D02433F481A655A6D9B
:1048500002405A655A6D22438C6B5A659A6D02402C
:104860009A659A6D2243CC6B9A65DA6D0240DA65DF
:10487000D86D314A2043D865186E02401A661A6E08
:10488000086C0243486C1A669A6B22F400429A63E1
:104890009A6B0243886C9A639A6922F47F029A6148
:1048A0009A6942EA0042C86C9A619A6922F0FF0252
:1048B0009A619A690243086D9A619A6B22F40052D8
:1048C0009A639A6B0243486D9A639A6B22F4805202
:1048D0009A639A6B0243886D9A639A6B22F4006222
:1048E0009A639A6B02439A639A6BC86D22F4806252
:1048F0009A639A6B0243086E9A639A6B22F4007271
:104900009A639A6B0243D1E919409A6300219A6B2A
:1049100022F480729A639A6B22439A639A6B22F410
:1049200080429A639A6B024308469A638CF810108F
:1049300030BC70470220704700C0FFFF00E0FFFF5F
:1049400000F0FFFF0080FFFF00FCFFFF027C03463A
:10495000012A0DD002684FF0000CD06A20F01F0031
:10496000D062D06A01436046D16283F810C07047BC
:1049700002207047037C012B3AD003688446D1E9BA
:10498000000210B4904238BF1046D3F8982002F0CD
:10499000FC22C3F89820D3F8982042EA0042024350
:1049A000C868C3F89820D3F89C2002F40042C3F8EA
:1049B0009C208A68D3F89C40120642EA00420869AB
:1049C0000243486900212243C3F89C20D3F8A42065
:1049D00022F47F42C3F8A420D3F8A42042EA0022A4
:1049E0000846C3F8A4208CF810105DF8044B7047FB
:1049F00002207047037C012B61D0036884469A68CB
:104A000022F47F4210B4D1E900049A609A6842EA25
:104A100000229A609A6F92B29A67986F294A40EA88
:104A200004408C689867986F10409867986F20438F
:104A3000CC689867D86F1040D867D86F20430C694E
:104A4000D867D3F880001040C3F88000D3F8800006
:104A500020434C69C3F88000D3F884001040C3F8A9
:104A60008400D3F884002043C3F88400D3F8840082
:104A70008C6920F08070C3F88400D3F88400204350
:104A8000CC69C3F88400D3F888001040C3F88800CC
:104A9000D3F8880020430C6AC3F88800D3F88C1040
:104AA0000A400021C3F88C200846D3F88C2022430A
:104AB000C3F88C208CF810105DF8044B704702206E
:104AC000704700BF0000FFFF037C012B21D003686B
:104AD00000210246084610B483B000915C6844F09F
:104AE00001045C605C6804F001040094009C019186
:104AF000D3F8044444F00804C3F80444D3F804345D
:104B0000117403F008030193019B03B05DF8044B9B
:104B100070470220704700BF2DE9F8439946037C97
:104B2000012B22D001230546884617460374FEF761
:104B30006FFD064606E0FEF76BFDA0EB060CBCF52C
:104B40007A7F10D82C68636FDB07F4D547EA092316
:104B5000089A002043EA024343EA8813E3660023ED
:104B60002B74BDE8F8830320F9E70220BDE8F88341
:104B7000027C0346012A12D002684FF0000CD2F8E2
:104B80001C0420F0C060C2F81C04D2F81C0440EAE7
:104B900041616046C2F81C1483F810C070470220BF
:104BA000704700BF8446007C012800F0228101206C
:104BB0008CF81000082925D8DFE811F0090046001C
:104BC00063008200A000BE00DC00FC002900DCF8CD
:104BD0000010D1F8180420F00060C1F81804D1F8D2
:104BE000180440EAC260C1F818045AB1D1F8282468
:104BF000DBB222F0FF02C1F82824D1F828241343A5
:104C0000C1F82834002318468CF810307047DCF8BF
:104C10000010D1F8180420F40020C1F81804D1F8CD
:104C2000180440EAC240C1F81804002AEAD0D1F8BA
:104C30002024DBB222F0FF02C1F82024D1F8202486
:104C40001343C1F82034DDE7DCF80010D1F8180474
:104C500020F08060C1F81804D1F8180440EA82609E
:104C6000C1F81804002ACDD0D1F8242422F07F42C4
:104C7000C1F82424D1F8242442EA0363C1F824347F
:104C8000C0E7DCF80010D1F8180420F00070C1F87B
:104C90001804D1F8180440EA4260C1F81804002A48
:104CA000B0D0D1F824241B0422F47F0203F47F0344
:104CB000C1F82424D1F824241343C1F82434A1E7F3
:104CC000DCF80010D1F8180420F08070C1F8180446
:104CD000D1F8180440EA0260C1F81804002A91D003
:104CE000D1F824241B0222F47F429BB2C1F8242471
:104CF000D1F824241343C1F8243483E7DCF80010EE
:104D0000D1F8180420F40000C1F81804D1F81804F0
:104D100040EAC250C1F81804002A3FF473AFD1F83A
:104D20002424DBB222F0FF02C1F82424D1F8242489
:104D30001343C1F8243465E7DCF80010D1F81804F7
:104D400020F48000C1F81804D1F8180440EA825019
:104D5000C1F81804002A3FF455AFD1F8202422F0FE
:104D60007F42C1F82024D1F8202442EA0363C1F82D
:104D7000203447E7DCF80010D1F8180420F40010C4
:104D8000C1F81804D1F8180440EA4250C1F81804D8
:104D9000002A3FF437AFD1F820241B0422F47F020D
:104DA00003F47F03C1F82024D1F820241343C1F871
:104DB000203427E7DCF80010D1F8180420F4801024
:104DC000C1F81804D1F8180440EA0250C1F81804D8
:104DD000002A3FF417AFD1F820241B0222F47F42AF
:104DE0009BB2C1F82024D1F820241343C1F8203409
:104DF00008E70220704700BF2DE9F04F99B0044644
:104E00004C22474905A83FF0BDFC002C00F0C081B2
:104E10002368444A93427ED094F8982002F0FF0120
:104E2000002A71D09A6922F010029A61FEF7F0FB15
:104E3000054604E0FEF7ECFB401B0A2858D823681F
:104E40009A691107F6D49A6942F001029A61FEF755
:104E5000DFFB054604E0FEF7DBFB401B0A2847D8D2
:104E600023689A69D207F6D59A6942F002029A61DC
:104E7000227C012A9A690CBF22F0400242F04002D3
:104E80009A61627C012A9A690CBF42F4804222F442
:104E900080429A61A27C012A9A690CBF22F4805256
:104EA00042F480529A619A69D4E9020122F4407274
:104EB000012942EA00029A619A6922F0A4029A61E9
:104EC0001A6922F010021A612ED089B302299A6958
:104ED00000F0858142F0800203299A611A6942F04C
:104EE00010021A6124D19A6942F020029A611FE0EF
:104EF000D4F89C30012003220343C4F89C3084F88A
:104F0000982019B0BDE8F08F204684F89910FBF77F
:104F100079FF236886E702F5807262607CE700BF54
:104F2000E448040800A000409A6942F004029A6133
:104F3000B0F5407FD4E9061202F1FF3201F1FF31F2
:104F40004FEA022242EA4162216A01F1FF3142EA5C
:104F50000102616901F1FF3142EA0142DA610ED1D9
:104F6000A16AD4E90B020139013A0138120142EA7F
:104F700000220A43616A013942EA0142DA60D4F848
:104F800060B0BBF1000F05D0D3F8C020616E0A43BA
:104F9000C3F8C020E26D1BEB020F019240F0FC80D1
:104FA000A26E0392D4E91085B8F1000F0BD018A9B6
:104FB000D3F8BC2001EB850122F0070251F84C1C0C
:104FC0000A43C3F8BC20D4E9126066B118A9D3F82B
:104FD000BC2001EB800122F0700251F84C1C42EA27
:104FE0000112C3F8BC20D4E914276AB10DF1600C9A
:104FF000D3F8BC100CEB870C21F4E0615CF84CCCCE
:1050000041EA0C21C3F8BC1077498B4200F0DE80E6
:1050100007FB02F24FF0010105FB08F9734D029204
:105020000022D4F834E000FB06FAC4F89C20C4F84F
:10503000942084F89810D3F88420D4F838C02A40FB
:10504000E76BA06D42EA8E02C3F88420D3F8842077
:1050500022F47F0242EA0C42C3F884200EEB0C02D9
:10506000D3F88810294041EA820102EB4702C3F8D5
:105070008810D3F8881021F4FE0141EA0741C3F8F3
:105080008810D3F8A010294041EA82014A44C3F8AD
:10509000A010D3F8A01021F4FE0141EA0841C3F8A2
:1050A000A010D3F8B010294041EA8201C3F8B01033
:1050B00002EB0A01D3F8B02022F4FE0848EA0646C3
:1050C000C3F8B060D3F8AC20029E2A4042EA8102C5
:1050D0003144C3F8AC20D3F8F0202A4042EA8102E0
:1050E00001EB4001C3F8F020D3F8F02022F47C1249
:1050F00042EA0042C3F8F0203D4A7244920002EBBB
:105100008C0C0CEBC70707EB890909EB8A08D3F86D
:10511000C0A00AEA050A08EB860E4AEA81010EEBF6
:10512000C006C3F8C010D3F8C010019D21F47C1153
:10513000039841EA054100FB05F5C3F8C01006EBF2
:105140008505D3F8C0A000FB0BF12AF07C5A05EBD3
:1051500081014AEA0B6AC3F8C0A0264BC4F8885004
:105160009942E266C4F89010C4E91CC7C4E91E98CD
:10517000C4E920E61FD88A4206D2002342F8043B45
:10518000D4F890309A42F8D3002019B0BDE8F08FDF
:10519000012019B0BDE8F08FA16E18A8D3F8C8207F
:1051A000039100EB810122F0070251F84C1C0A43E5
:1051B000C3F8C820F6E6D4F89C300322012043F05F
:1051C0002003C4F89C3084F898209AE6D4F804C0F0
:1051D000DCF8081021F00301CCF8081018E742F0C1
:1051E00020029A61A4E600BF00A000400300FFFF78
:1051F000002B0010FCD300402DE9F04F0C6883B069
:10520000002C00F0A7804FF0000C8A4F634601226B
:105210009A4012EA040E00F096804D6805F00309EA
:1052200009F1FF36012E40F29880B9F1030F40F0EA
:10523000D28009FA0CF26FEA0208066815F4403FC2
:1052400006EA080642EA060202607CD0D7F8F4209B
:1052500023F0030803F003090F2642F0020208F1CD
:10526000B0484FEA8909C7F8F42008F58068D7F8F4
:10527000F42006FA09F602F002020192019AD8F827
:10528000082022EA06026C4EB04228D006F580665D
:10529000B04200F0AC80694EB04200F0AD80684E84
:1052A000B04200F09F80674EB04200F0AF80664E83
:1052B000B04200F0B080654EB04200F0A280644E73
:1052C000B04200F0AD80634EB04200F0AE80624E5E
:1052D000B0420CBF09260A2606FA09F63243C8F87E
:1052E00008204FF0B04215F4801F6FEA0E061268D6
:1052F0004FF0B0480CBF32404EEA020215F4001FD6
:10530000C8F80020D8F804204FF0B0480CBF324055
:105310004EEA020215F4003FC8F80420D8F88420B1
:105320004FF0B0480CBF32404EEA0202ED034FF09E
:10533000B045C8F88420D8F8802054BF32404EEAE7
:105340000202C5F8802001330CF1020C34FA03F29A
:105350007FF45DAF03B0BDE8F08F4FF003088668BF
:1053600008FA0CF826EA080ACE686FEA080806FA76
:105370000CF646EA0A068660C5F30016D0F804A0CB
:105380009E402AEA020232434260C268B9F1020F2B
:105390008E6802EA080206FA0CF646EA020609FAE4
:1053A0000CF2C6607FF449AF4FEAD30903F0070B54
:1053B0000F2600EB89094FEA8B0BD9F820A006FADB
:1053C0000BF62AEA060A0E6906FA0BF646EA0A0600
:1053D000C9F8206031E74FF0030808FA0CF86FEACB
:1053E0000808D2E7032606FA09F6324377E70126D2
:1053F00006FA09F6324372E7022606FA09F6324344
:105400006DE7062606FA09F6324368E7042606FA2F
:1054100009F6324363E7052606FA09F632435EE7EA
:10542000072606FA09F6324359E7082606FA09F66E
:10543000324354E700440258000002580008025862
:10544000000C0258001002580014025800180258AC
:10545000001C025800200258002402580369194217
:1054600014BF01200020704702B909048161704710
:105470004FF0B042D2F88810014200D1704708B511
:10548000C2F88800FCF774FC08BD00BF044A203055
:10549000044B52F82000C01A18BF0120704700BF0B
:1054A0000064025800030080024B41F4407143F84D
:1054B00020107047006402582DE9F04703684FF050
:1054C000200805460E461746986910F0020940F07C
:1054D0009E809C6914F0100468D010223C46CA4695
:1054E000DA61711C9A6963D1900600F19380BAF178
:1054F000000F04D19C69A106FCD5C3F81C8049F0BB
:10550000040401219A69D00530D54FF48071560505
:1055100044F00104D96104D54FF4806144F00804DB
:10552000D961910504D54FF4007244F00204DA61A8
:105530009A69900701D500229A629A69D10703D42B
:105540009A6942F001029A615A6800213448202683
:10555000024001205A606B6C85F8401023436B6455
:1055600085F8416085F84210BDE8F0875005D3D436
:105570009205D8D40029DBD1721CA5D0FEF748F8DB
:10558000C01B2B68B04201D8002E9DD19A6912F041
:10559000020299D16B6C2021012085F840200B4339
:1055A0006B6485F8411085F84220DDE72146A9E7C4
:1055B00092062FD4BAF1000FA1D1FEF729F8001BF3
:1055C0002B68864201D3002E8BD1586895F8422073
:1055D0009969D2B209040BD5410409D4202A07D015
:1055E0005A6842F480425A60FEF712F82B6804466B
:1055F0009A6990063FF575AFFEF70AF8001B2B6815
:105600001928F5D94FF020094FF0010A69E7002069
:10561000BDE8F087BAF1000F3FF46FAF6FE700BF4E
:1056200000E800FE2DE9F047904602680F469169B8
:105630008C0669D4064613464FF01009946914F09D
:10564000100464D0002513464446C2F81C90AA46B4
:10565000791C9A695DD1900600F18380BAF1000F40
:1056600004D19C69A106FCD52022DA6145F004042E
:1056700001219A69D00530D54FF48071550544F069
:105680000104D96104D54FF4806144F00804D96164
:10569000910504D54FF4007244F00204DA619A696E
:1056A000950701D500229A629A69D00703D49A69B6
:1056B00042F001029A615A680021374820250240D1
:1056C00001205A60736C86F840102343736486F897
:1056D000415086F84210BDE8F0875005D3D49205BA
:1056E000D8D40029DBD1FDF793FFA0EB0800B84226
:1056F00001D8002F32D132689169134611F0200190
:1057000034D09169890699D50020BDE8F0872146FB
:10571000AFE7920625D4BAF1000FA7D1FDF778FFC5
:10572000001B3368874201D3002F91D1586896F847
:1057300042209969D2B2090403D5410401D4202A38
:1057400021D19A69900683D4FDF762FF001B33686C
:105750001928F6D920254FF0010A79E733681A464F
:10576000CFE7BAF1000F3FF47FAF7FE7736C2022E1
:10577000012086F840101343736486F8412086F8B0
:105780004210BDE8F0875A6842F480425A60FDF743
:105790003FFF33680446D4E700E800FE00284ED0FF
:1057A00010B590F84130044603F0FF02002B41D0C1
:1057B00023682421626884F84110196822F070621D
:1057C000E06821F00101012819601A619A6822F449
:1057D00000429A60A26829D042F4044202289A60EA
:1057E00002D14FF400625A6058684FF0200C1549FE
:1057F000226901435960D96821F40041D960D4E994
:105800000501024342EA0122D4E90710DA600022CE
:10581000014310461960196841F001011960626482
:1058200084F841C0226384F8422010BD42F4004253
:105830009A60D9E780F84020FBF766FFB8E70120BF
:10584000704700BF008000022DE9F84F1C4690F819
:105850004130BDF82C90202B0C9D37D10A9B8346FC
:105860006BB3B9F1000F2AD090F84030012B2DD046
:1058700001230F46904680F84030FDF7C9FEDBF863
:10588000003006469A69100423D5FDF7C1FE801B3F
:10589000DBF800301928F5D99A691104F2D5DBF844
:1058A00044302021002201200B438BF84020CBF80C
:1058B00044308BF841108BF84220BDE8F88F4FF44C
:1058C00000730120CBF84430BDE8F88F0220BDE81A
:1058D000F88F0A9A2221C7F3090758468BF841101E
:1058E0004021CBF8242000228BF84210CBF8342042
:1058F000CBF844208349ABF82A905A680A40E1B2B9
:1059000042EA014229463A4342F400525A60324682
:10591000FFF7D2FD002840F09180012C0CD04FEA17
:105920001822DBF80030294658469A623246FFF7C3
:10593000C3FD002840F082805FFA88F3DBF8004066
:10594000A3626A1C60D1A3695B06FCD5BBF82A3050
:105950009BB2FF2B40F2AE8063686A4A13406A4AEA
:105960003B431A43FF23ABF828306260DFF8A48181
:105970004FF0FF0ADFF8A091691C27D1A3695A07ED
:10598000FCD5626ADBF824301A70BBF82A20DBF8F9
:105990002430013A013392B2CBF82430BBF82830DE
:1059A000ABF82A20013BBBF82A209BB292B2ABF89D
:1059B00028300AB1002B46D0BBF82A309BB2002B0E
:1059C00000F08880691CDBF80040D7D0A3695B0732
:1059D000D7D4FDF71DFE801BDBF80040854201D3C4
:1059E000002DC9D1A36913F00403C5D1DBF844200D
:1059F000202101208BF840300A43CBF844208BF85B
:105A000041108BF842305FE7A36958069ED4FDF73A
:105A1000FFFD801BDBF80040854201D3002D90D1B3
:105A2000A36913F040038CD1DBF8442020210A4302
:105A3000CBF844208BF841108BF842300023012032
:105A40008BF8403040E7DBF80020681C11D19369E7
:105A50001906FCD5BBF82A309BB2FF2B1AD9536824
:105A6000ABF828A003EA08033B4343EA0903536069
:105A7000A2E793691B06EDD4FDF7CAFD801BDBF896
:105A80000020854201D3002DDFD1936913F08003FC
:105A9000DBD1ABE7BBF82A309BB2D9B2ABF82830E8
:105AA000536803EA08033B4343EA014343F00073AE
:105AB000536081E7BBF82A3012499BB2DAB2ABF8E7
:105AC000283063680B403B4343EA02430F4A1A43C2
:105AD00062604BE7324629465846FFF7A3FD70B98E
